S01200004B616C6B756C61746F722E73726563F8
S1130000DDC0F7C0F6C0F5C0F4C0F3C0F2C0F1C063
S1130010F0C0EFC0EEC0EDC0ECC0EBC0EAC0E9C078
S1130020E8C0E7C0E6C0DDC573C54AC781C693C54D
S1130030FFC553C627C619C73EC55AC741C57CC6A6
S113004007634236B79BD8A71A39685618AEBAABBD
S1130050558C1D3CB7CC5763BD6DEDFD753EF61751
S11300607231BF000000803F08000000BE922449A6
S1130070123EABAAAA2ABECDCCCC4C3E00000080D6
S1130080BEABAAAAAA3E00000000BF000000803F49
S11300900000000000084178D3BB4387D1133D1909
S11300A00E3CC3BD4282AD2B3E68EC8276BED98F36
S11300B0E1A93E4C80EFFFBE01C4FF7F3F0000007A
S11300C0000000407A10F35A00A0724E1809001084
S11300D0A5D4E80000E87648170000E40B540200B9
S11300E000CA9A3B000000E1F505000080969800E4
S11300F0000040420F000000A0860100000010270D
S113010000000000E803000000006400000000009C
S11301100A00000000000100000000002C76D888CE
S1130120DC674F0823DFC1DFAE59E1B1B796E5E3E1
S1130130E453C63AE651997696E8E6C28426EB89FA
S11301408C9B62ED407C6FFCEFBC9C9F40F2BAA597
S11301506FA5F490055A2AF75C936B6CF9676DC12F
S11301601BFCE0E40D47FEF520E6B500D0ED902E33
S11301700300943577050080841E080000204E0A91
S1130180000000C80C333333330F986E12831141CF
S1130190EF8D2114893BE65516CFFEE6DB18D1849A
S11301A04B381BF77C1D901DA4BBE42420328472C1
S11301B05E228100C9F124ECA1E53D2711241FBE74
S11301C0CFE5D4E0DEBFCDBF10E0A0E6B0E0EAEBBF
S11301D0FBE102C005900D92AC36B107D9F720E0DF
S11301E0ACE6B0E001C01D92AD38B207E1F794D699
S11301F0E2CC06CF662369F080FD02C090E001C026
S113020090E181FD906282FD906483FF13C0906849
S113021011C0859585958595859580FD02C090E0F2
S113022001C090E181FD906282FD90648870883005
S113023009F49068892F089587E284BB17BA8FEF79
S113024088BB8FE185BB0895FC012081222391F0B6
S1130250319680E003C02191222341F0611102C054
S11302602E3221F08F5F8031B1F70895811103C0E0
S113027081E0089581E00895CF93DF93C82F82B37E
S11302808F7082BB939AD2B360E08C2FB3DF8D2B37
S113029082BB8AE18A95F1F700C0939882E08A953F
S11302A0F1F700C082B38F7082BB939AD2B361E03E
S11302B08C2FA0DF8D2B82BB8AE18A95F1F700C0D9
S11302C093988AE68A95F1F700C0DF91CF9108955B
S11302D0929881E0D1DF929A8FE99FE00197F1F73C
S11302E000C0000008959298823039F0833041F0C4
S11302F0813049F480ECC0DF08C084E9BDDF05C06B
S113030084EDBADF02C080E8B7DF929A8FE99FE0FC
S11303100197F1F700C0000008950F931F93CF9346
S1130320DF93062F161644F4C82FD92F10E08991B5
S1130330A3DF1F5F1013FBCFDF91CF911F910F91AC
S113034008958FEF81BB12BA2FEF80E792E021501E
S113035080409040E1F700C00000919A90989298F4
S113036083E090E0939A22B3206322BBEAE1EA950A
S1130370F1F700C09398E7ECF0E03197F1F700C093
S113038000000197009771F7939A9498FAE1FA950F
S1130390F1F700C09398929888E26EDF929A22E077
S11303A02A95F1F700C0929886E066DF929A82E07F
S11303B08A95F1F700C092988EE05EDF929AEFEC96
S11303C0F7E03197F1F700C00000929881E054DF24
S11303D0929A8FE99FE00197F1F700C00000089519
S11303E08FEF8093640010928C0010928B00109217
S11303F08A00109286001092870010928800109252
S1130400890010928200109283001092840010924E
S1130410850010927E0010927F001092800010924E
S1130420810080E090E0A0E8BFE3809360009093B7
S11304306100A0936200B0936300EEE6F0E08EE703
S113044090E01192E817F907E1F70895A89AAA989D
S11304502AE12A95F1F700C0B6990BC08FEF9DEE03
S113046022E0815090402040E1F700C00000B69B9C
S113047038C19B990BC08FEF9DEE22E081509040D4
S11304802040E1F700C000009B9B2DC19C990BC04C
S11304908FEF9DEE22E0815090402040E1F700C0B4
S11304A000009C9B22C1B7990BC08FEF9DEE22E008
S11304B0815090402040E1F700C00000B79B17C175
S11304C0B3990BC08FEF9DEE22E081509040204005
S11304D0E1F700C00000B39B0CC1B1990BC08FEFD2
S11304E09DEE22E0815090402040E1F700C00000E2
S11304F0B19B01C1B4990BC08FEF9DEE22E08150F6
S113050090402040E1F700C00000B49BF6C0B099D1
S11305100BC08FEF9DEE22E0815090402040E1F728
S113052000C00000B09BEBC0AA9AA9988AE18A9502
S1130530F1F700C09B990BC09FEF2DEE82E0915024
S113054020408040E1F700C000009B9BDAC0B699D0
S11305500BC09FEF2DEE82E0915020408040E1F7E8
S113056000C00000B69BCFC0B7990BC09FEF2DEE23
S113057082E0915020408040E1F700C00000B79B2A
S1130580C4C0B4990BC09FEF2DEE82E0915020407F
S11305908040E1F700C00000B49BB9C09C990BC037
S11305A09FEF2DEE82E0915020408040E1F700C0A3
S11305B000009C9BAEC0B5990BC09FEF2DEE82E06E
S11305C0915020408040E1F700C00000B59BA3C0DB
S11305D0B3990BC09FEF2DEE82E0915020408040F4
S11305E0E1F700C00000B39B98C0B1990BC09FEF26
S11305F02DEE82E0915020408040E1F700C00000E1
S1130600B19B8DC0B2990BC09FEF2DEE82E091504B
S113061020408040E1F700C00000B29B82C0B09946
S11306200BC09FEF2DEE82E0915020408040E1F717
S113063000C00000B09B77C0A99AA8989AE19A9547
S1130640F1F700C0B5990BC02FEF8DEE92E0215069
S113065080409040E1F700C00000B59B66C0B399AC
S11306600BC02FEF8DEE92E0215080409040E1F7D7
S113067000C00000B39B5BC0B0990BC02FEF8DEEA0
S113068092E0215080409040E1F700C00000B09B10
S113069050C0B6990BC02FEF8DEE92E021508040F0
S11306A09040E1F700C00000B69B45C09B990BC089
S11306B02FEF8DEE92E0215080409040E1F700C092
S11306C000009B9B3AC0B799C1CE2FEF8DEE92E00C
S11306D0215080409040E1F700C00000B799B6CEA9
S11306E02EC08FE008958EE008958DE008958CE08B
S11306F0089585E1089586E1089587E1089584E1E8
S1130700089580E0089581E0089582E0089583E0EB
S1130710089584E0089585E0089586E0089587E0CB
S1130720089588E0089589E0089583E1089582E1B9
S113073008958AE0089580E108958BE0089581E1A9
S11307400895CF93DF93CDB7DEB760970FB6F894D3
S1130750DEBF0FBECDBF10926D0010926C0080E022
S113076090E0CCD789DD80916C0090916D000F975B
S113077011F481E0B8DD20916C0030916D002F5FA1
S11307803F4F30936D0020936C002032310518F4F4
S1130790822F932FE6CF5ADE992787FD90958230DA
S11307A09105C9F580916C0090916D00803E914057
S11307B090F780E098DD8CDD60916C0070916D00A5
S11307C040E150E0CE01019689D780916C00909170
S11307D06D00409690936D0080936C0060E1CE01B3
S11307E001969BDD81E07FDD60916C0070916D006E
S11307F040E150E0CE01019671D780916C00909158
S11308006D00409690936D0080936C0060E1CE0182
S1130810019683DDC0CF8830910599F580916C00F5
S113082090916D00809708F4B6CF80E05CDD50DDD8
S113083060916C0070916D006052710970936D004D
S113084060936C0040E150E0CE01019647D760E12F
S1130850CE01019662DD81E046DD60916C0070910D
S11308606D00605F7F4F70936D0060936C0040E19A
S113087050E0CE01019632D760E1CE0101964DDD04
S11308808ACF0D9709F087CFABDD22DD60960FB6D6
S1130890F894DEBF0FBECDBFDF91CF910895CF9204
S11308A0DF92EF92FF920F931F93CF93C82F86EF9F
S11308B08C0F8E3008F4F0C080918B0081116AC0D7
S11308C080918A00811124C020E030E040E251E4AC
S11308D060918600709187008091880090918900D2
S11308E0CCD46B017C016C2F772767FD7095872F23
S11308F0972F13D49B01AC01C701B6013CD360937D
S113090086007093870080938800909389002CC0A0
S11309102091600030916100409162005091630029
S113092060E070E080E291E40BD56B017C016C2FF8
S1130930772767FD7095872F972FEFD3A70196012F
S113094082D39B01AC0160918600709187008091F5
S11309508800909189000FD360938600709387007C
S1130960809388009093890060918600709187003D
S113097080918800909189000EE610E028E04AE01A
S11309808DD6A6DC60918A00C8015EDC682FC801A0
S1130990C4DC69C080918A00811124C020E030E069
S11309A040E251E460918200709183008091840060
S11309B09091850062D46B017C016C2F772767FDD1
S11309C07095872F972FA9D39B01AC01C701B6015E
S11309D0D2D26093820070938300809384009093BA
S11309E085002CC02091600030916100409162002C
S11309F05091630060E070E080E291E4A1D46B0167
S1130A007C016C2F772767FD7095872F972F85D3EF
S1130A10A701960118D39B01AC01609182007091EB
S1130A2083008091840090918500A5D26093820018
S1130A30709383008093840090938500609182007A
S1130A407091830080918400909185000EE610E0FF
S1130A5028E04AE023D63CDC60918A00C801F4DB3C
S1130A60682FC8015ADC80918A008823A9F020E00D
S1130A7030E040E85FE36091600070916100809134
S1130A8062009091630077D260936000709361007C
S1130A9080936200909363008C2F992787FD909533
S1130AA0A92FB92FFC013B97ED30F10508F02CC2BA
S1130AB0ED5EFF4F099492B382E0892782BB24C282
S1130AC081E080938B0080E090E0A0E8BFE3809316
S1130AD0600090936100A0936200B0936300109251
S1130AE08A00F6DB6091820070918300809184001B
S1130AF0909185000EE610E028E04AE0CFD5E8DBCF
S1130B0060918A00C801A0DB682FC80106DCFCC123
S1130B1020E83AE84DE857E4609186007091870038
S1130B2080918800909189008AD28111EDC120E8DA
S1130B3030E043EE57E4609182007091830080912D
S1130B408400909185007BD28111DEC185E0809381
S1130B508C00BEDBD9C180918B00811121C08091B2
S1130B60860090918700A0918800B0918900BC0113
S1130B70CD0190586093860070938700809388001D
S1130B80909389000EE610E028E04AE087D5A0DBC8
S1130B9060918A00C80158DB682FC801BEDBB4C16C
S1130BA08091820090918300A0918400B09185008F
S1130BB0BC01CD01905860938200709383008093B0
S1130BC08400909385000EE610E028E04AE066D5A4
S1130BD07FDB60918A00C80137DB682FC8019DDB89
S1130BE093C16091860070918700809188009091F4
S1130BF08900F6D360937E0070937F008093800019
S1130C009093810065DB60917E0070917F008091FC
S1130C108000909181000EE610E025E047E03ED58B
S1130C2061E0C80111DB682FC80177DBD9DB6CC137
S1130C3081E080938C0080938B0080E090E0A0E8BA
S1130C40BFE38093600090936100A0936200B0932F
S1130C50630010928A003CDB6091820070918300F3
S1130C6080918400909185000EE610E028E04AE02F
S1130C7015D52EDB60918A00C801E6DA682FC80119
S1130C804CDB42C182E080938C0081E080938B0036
S1130C9080E090E0A0E8BFE380936000909361005F
S1130CA0A0936200B093630010928A0011DB6091FC
S1130CB082007091830080918400909185000EE6FB
S1130CC010E028E04AE0EAD403DB60918A00C8011E
S1130CD0BBDA682FC80121DB17C183E080938C0045
S1130CE081E080938B0080E090E0A0E8BFE38093F4
S1130CF0600090936100A0936200B093630010922F
S1130D008A00E6DA60918200709183008091840009
S1130D10909185000EE610E028E04AE0BFD4D8DACE
S1130D2060918A00C80190DA682FC801F6DAECC035
S1130D3081E080938A00E8C010927E0010927F00C8
S1130D40109280001092810080918C00833009F40D
S1130D5041C02CF4813051F0823011F170C08430E4
S1130D6009F452C0853009F469C069C02091820039
S1130D7030918300409184005091850060918600F9
S1130D8070918700809188009091890076D2609359
S1130D907E0070937F0080938000909381004FC009
S1130DA0209182003091830040918400509185000D
S1130DB060918600709187008091880090918900ED
S1130DC0D9D060937E0070937F00809380009093CD
S1130DD0810035C0209182003091830040918400CD
S1130DE05091850060918600709187008091880001
S1130DF09091890028D160937E0070937F00809346
S1130E008000909381001BC0209182003091830068
S1130E104091840050918500609186007091870014
S1130E208091880090918900A6D060937E00709391
S1130E307F00809380009093810001C082DC48DAB7
S1130E4060917E0070917F0080918000909181007C
S1130E500EE610E025E047E021D461E0C801F4D9B2
S1130E60682FC8015ADABCDA4FC084E080938C0042
S1130E7081E080938B0080E090E0A0E8BFE3809362
S1130E80600090936100A0936200B093630010929D
S1130E908A001EDA60918200709183008091840040
S1130EA0909185000EE610E028E04AE0F7D310DACE
S1130EB060918A00C801C8D9682FC8012EDA24C0FD
S1130EC08FDA06DA60918200709183008091840049
S1130ED0909185000EE610E028E04AE0DFD3F8D9CF
S1130EE060918A00C801B0D9682FC80116DA0CC015
S1130EF0EFD92FEF84E39CE0215080409040E1F74C
S1130F0000C000001EDAE4D9CF911F910F91FF9029
S1130F10EF90DF90CF900895CF93DF9300D000D06F
S1130F201F92CDB7DEB72FEF84E39CE021508040C1
S1130F309040E1F700C000007FD903DA85E0E5E6E0
S1130F40F0E0DE01119601900D928A95E1F765E0DB
S1130F50CE010196E2D92FEF89E698E12150804035
S1130F609040E1F700C00000B3D970DA80936400C8
S1130F7096DCFBCF5058BB27AA270ED044C135D1ED
S1130F8030F03AD120F031F49F3F11F41EF42AC11D
S1130F900EF4E095E7FB20C1E92F46D180F3BA17A0
S1130FA0620773078407950718F071F49EF55EC114
S1130FB00EF4E0950B2EBA2FA02D0B01B901900170
S1130FC00C01CA01A0011124FF27591B99F0593FB4
S1130FD050F4503E68F11A16F040A22F232F342FFC
S1130FE04427585FF3CF469537952795A795F0404A
S1130FF05395C9F77EF41F16BA0B620B730B840B5F
S1131000BAF09150A1F0FF0FBB1F661F771F881F16
S1131010C2F70EC0BA0F621F731F841F48F487956E
S113102077956795B795F7959E3F08F0B3CF93955D
S1131030880F08F09927EE0F979587950895A8D003
S113104008F481E008950CD0DEC0D6D040F0CDD0B5
S113105030F021F45F3F19F0BFC0511108C1C2C084
S1131060E3D098F39923C9F35523B1F3951B550B9A
S1131070BB27AA2762177307840738F09F5F5F4F67
S1131080220F331F441FAA1FA9F333D00E2E3AF0A8
S1131090E0E830D091505040E695001CCAF729D0C2
S11310A0FE2F27D0660F771F881FBB1F2617370711
S11310B04807AB07B0E809F0BB0B802DBF01FF2741
S11310C093585F4F2AF09E3F510568F085C0CFC00A
S11310D05F3FECF3983EDCF3869577956795B7957B
S11310E0F7959F5FC9F7880F911D9695879597F996
S11310F00895E1E0660F771F881FBB1F621773070F
S11311008407BA0720F0621B730B840BBA0BEE1F23
S113111088F7E0950895E89409C097FB3EF490950C
S11311208095709561957F4F8F4F9F4F9923A9F0BC
S1131130F92F96E9BB279395F6958795779567954B
S1131140B795F111F8CFFAF4BB0F11F460FF1BC08F
S11311506F5F7F4F8F4F9F4F16C0882311F096E922
S113116011C0772321F09EE8872F762F05C06623D0
S113117071F096E8862F70E060E02AF09A95660F89
S1131180771F881FDAF7880F9695879597F9089542
S1131190990F0008550FAA0BE0E8FEEF1616170684
S11311A0E807F907C0F012161306E407F50798F0EC
S11311B0621B730B840B950B39F40A2661F0232B05
S11311C0242B252B21F408950A2609F4A140A69581
S11311D08FEF811D811D089597F99F6780E870E066
S11311E060E008959FEF80EC089500240A94161699
S11311F0170618060906089500240A941216130601
S1131200140605060895092E0394000C11F488238E
S113121052F0BB0F40F4BF2B11F460FF04C06F5FAA
S11312207F4F8F4F9F4F089557FD9058440F551F80
S113123059F05F3F71F04795880F97FB991F61F054
S11312409F3F79F087950895121613061406551FCB
S1131250F2CF4695F1DF08C0161617061806991F37
S1131260F1CF86957105610508940895E894BB272C
S113127066277727CB0197F908950BD0C4CFB5DF44
S113128028F0BADF18F0952309F0A6CFABCF1124CC
S1131290EECFCADFA0F3959FD1F3950F50E0551F11
S11312A0629FF001729FBB27F00DB11D639FAA27B7
S11312B0F00DB11DAA1F649F6627B00DA11D661F06
S11312C0829F2227B00DA11D621F739FB00DA11D27
S11312D0621F839FA00D611D221F749F3327A00DE1
S11312E0611D231F849F600D211D822F762F6A2F7D
S11312F011249F5750408AF0E1F088234AF0EE0F02
S1131300FF1FBB1F661F771F881F91505040A9F70E
S11313109E3F510570F060CFAACF5F3FECF3983E3B
S1131320DCF3869577956795B795F795E7959F5F75
S1131330C1F7FE2B880F911D9695879597F908950F
S1131340FA01EE0FFF1F30962105310599F1611561
S1131350710561F48038BFE39B0749F168949038C4
S1131360810561F08038BFEF9B0741F0992342F576
S1131370FF3FE1053105210511F1E8940894E79553
S1131380D901AA2329F4AB2FBE2FF85FD0F310C0E4
S1131390FF5F70F4A695E0F7F73950F019F0FF3AC3
S11313A038F49F779F930CD00F9007FC90580895C2
S11313B03EF018CF60E070E080E89FE308954FE7C7
S11313C09F775F934F933F932F93F5D02F913F9146
S11313D04F915F9152DF47C011F40EF403CF6FC0F9
S11313E02BDFD0F39923D9F3CEF39F57550B87FF07
S11313F074D00024A0E640EA900180585695979551
S113140028F4805C660F771F881F20F026173707A3
S1131410480730F4621B730B840B202931294A2BB3
S1131420A69517940794202531254A2758F7660F67
S1131430771F881F20F026173707480730F4620B00
S1131440730B840B200D311D411DA09581F7B9014B
S1131450842F9158880F96958795089519F40EF066
S1131460BBCE04CFBFCEE8DEC8F39638C0F707F88A
S11314700F92E8942BE33AEA48EB5FE70CDF0F9214
S11314800F920F924DB75EB70F92D5D0E0E4F0E023
S11314902BD04F915F91EF91FF91E595EE1FFF1FC8
S11314A049F0FE57E0684427EE0F441FFA95E1F730
S11314B04195550B47D00F9007FE3BC008959F3FC1
S11314C031F0915020F4879577956795B795880FFB
S11314D0911D9695879597F9089591505040660F00
S11314E0771F881FD2F70895DF93CF931F930F932D
S11314F0FF92EF92DF927B018C01689405C0DA2E93
S1131500EF01C7DEFE01E894A5912591359145913F
S11315105591AEF3EF0140DDFE019701A801DA9485
S113152079F7DF90EF90FF900F911F91CF91DF91AA
S113153008959B01AC0160E070E080E89FE383CDF7
S11315404BCEBDCF79DEE8F39923D9F3940F511D27
S1131550BBF39150504094F059F0882332F0660F59
S1131560771F881F91505040C1F79E3F510544F7A3
S1131570880F911D9695879597F908955F3FACF074
S1131580983E9CF0BB27869577956795B79508F4A8
S1131590B1609395C1F7BB0F58F711F460FFE8CF22
S11315A06F5F7F4F8F4F9F4FE3CF61CE0EF087CF9A
S11315B019CE689411CE40DEC8F39923D1F3C6F353
S11315C0DF93CF931F930F93FF92C92FDD278823B7
S11315D02AF02197660F771F881FDAF720E030E0A2
S11315E040E85FEB9FE3883920F0803E30F021969D
S11315F08F77C1DCE8E6F0E003C0BDDCE5E9F0E0AC
S113160073DF8B01BE01EC01FB2E6F5771097595D9
S1131610771F880B990B81DD28E132E741E35FE313
S113162038DEAF2D9801AE01FF900F911F91CF913D
S1131630DF91B2DCE8CDFA01DC01AA0FBB1F9B01EC
S1131640AC01BF5728F422273327442750781FC002
S1131650B75188F4AB2F0024469537952795011C84
S1131660A395D2F3002069F0220F331F441FB395D2
S1131670DAF30DD07FCC61307105A0E88A07B94652
S113168030F49B01AC016627772788279078309641
S113169021F020833183428353830895EF920F9383
S11316A01F93CF93DF93E80147FF02C034E101C0E9
S11316B034E0E42FFF27E7FDF095F7FF03C0F19531
S11316C0E195F109E32E022F2E2FAE011FD0CE019A
S11316D0DF91CF911F910F91EF900895DC01CB0121
S11316E0FC01E199FECF06C0FFBBEEBBE09A319648
S11316F00DB20D9241505040B8F70895E199FECFD4
S11317009FBB8EBBE09A99278DB308956F927F9209
S11317109F92AF92BF92CF92DF92EF92FF920F937C
S11317201F93CF93DF93CDB7DEB729970FB6F89405
S1131730DEBF0FBECDBF6A01B22E102F0C3320F4D2
S1131740FF24F394F00E02C04CE3F42E0F2D27E097
S1131750AE014F5F5F4F57D17981272F2970213018
S113176031F0E1FC06C0E0FC06C060E005C06DE2BB
S113177003C06BE201C060E2AE2DA07173FF36C0FE
S1131780662311F084E001C083E08B1510F4B81ACD
S113179001C0B12CA1110BC0F6018B2D90E288235E
S11317A019F091938150FBCFCB0CD11CB12C662343
S11317B031F0F601608396012F5F3F4F6901C60146
S11317C00396E2FE05C02EE4F601208331E404C052
S11317D02EE6F601208331E631832283FC012B2D92
S11317E030E22223F1F131932150FBCF72FF40C04C
S11317F0662311F084E001C083E08B1510F4B81A5D
S113180001C0B12CA1110BC0F6018B2D90E28823ED
S113181019F091938150FBCFCB0CD11CB12C6623D2
S113182031F0F601608396012F5F3F4F6901C601D5
S11318300396E2FE07C029E4F60120832EE4218307
S113184026E406C029E6F60120832EE6218326E657
S11318502283FC012B2D30E2222319F031932150F5
S1131860FBCFFC01EB0DF11D10828EEF9FEFB7C093
S1131870B1E0611101C0B0E04B2F50E01816190619
S113188024F49C012F5F3F4F02C021E030E0240F7D
S1131890351F112329F0412F50E04F5F5F4F02C0E5
S11318A040E050E0420F531F2B2D30E04217530706
S11318B014F4B41A01C0B12C2E2D287159F4F60178
S11318C02B2D30E2222319F031932150FBCFCB0C86
S11318D0D11CB12CBB2331F0F601608396012F5F3C
S11318E03F4F6901A1110BC0F6012B2D30E32223D8
S11318F019F031932150FBCFCB0CD11CB12CF80E35
S11319000A81372F3071A32E74FF03C0013309F409
S1131910FA941F142CF42F2D293018F028E001C05C
S113192021E0682F392F97FF02C060E030E0462F96
S1131930532F612C712C3EE2932EBC01621B710962
S11319409B01DC01A41BB50BE1E0F0E0EC0FFD1FF3
S1131950AE0FBF1FE12EF12CF194E194F1084F3F3B
S1131960FFEF5F0731F4F6019082B6016F5F7F4F9E
S11319706B01841795074CF02417350734F4BD0127
S1131980660D771DFB01118101C010E3415051091F
S1131990FFEF6F1A7F0AB6016F5F7F4F4E155F0529
S11319A024F0F60110836B01DACF4817590739F494
S11319B0063320F4053319F4A11001C011E3F60134
S11319C01083FB018B2D90E2882319F091938150B1
S11319D0FBCFFB01EB0DF11D108280E090E0299616
S11319E00FB6F894DEBF0FBECDBFDF91CF911F912C
S11319F00F91FF90EF90DF90CF90BF90AF909F90AA
S1131A007F906F900895283008F027E03327DA019B
S1131A10990F311D87FD916000966105710539F4B8
S1131A2032602E5F3D9330E32A95E1F708959F3F9E
S1131A3030F080387105610509F03C5F3C5F3D93EF
S1131A40913008F08068911DDF93CF931F930F931B
S1131A50FF92EF92192F987F9695E92F9695969578
S1131A60E90FFF27E45EFE4F99273327EE24FF2476
S1131A70A701E70105900894079428F4360FE71EA0
S1131A80F81E491F511D660F771F881F991F069462
S1131A90A1F70590079428F4E70EF81E491F561F76
S1131AA0C11D770F881F991F661F0694A1F7059023
S1131AB0079428F4F80E491F561FC71FD11D880F1D
S1131AC0991F661F771F0694A1F70590079420F4C9
S1131AD0490F561FC71FD81F990F661F771F881FEE
S1131AE00694A9F784911095177041F0D695C7957F
S1131AF057954795F794E7941A95C1F7E2ECF0E00F
S1131B0068941590159135916591959105907FE2B2
S1131B107395E118F10A430B560BC90BD009C0F7B2
S1131B20E10CF11E431F561FC91FD01D7EF47033F4
S1131B3011F48A95E6CFE894015030F0080F0AF4C6
S1131B400027021708F4202F2395022F7A3328F058
S1131B5079E37D932A95E9F710C07D932A9589F658
S1131B60069497956795379517951794E118F10A98
S1131B70430B560BC90BD00998F023957E917395AE
S1131B807A3308F070E37C932013B8F77E91706188
S1131B907D9330F0839571E37D9370E32A95E1F7AB
S1131BA01124EF90FF900F911F91CF91DF9199270E
S10D1BB087FD90950895F894FFCF87
S10F1BBA0000803FFF576974616A00005E
S9030000FC
